{
  "address": "0x8c813E7EBC06CbE04530AA802A9098f0aE74A622",
  "abi": [
    {
      "inputs": [
        {
          "internalType": "address",
          "name": "vrfCoordinator",
          "type": "address"
        },
        {
          "internalType": "uint64",
          "name": "subscriptionId",
          "type": "uint64"
        },
        {
          "internalType": "bytes32",
          "name": "gasLane",
          "type": "bytes32"
        },
        {
          "internalType": "uint32",
          "name": "callbackGasLimit",
          "type": "uint32"
        },
        {
          "internalType": "string[3]",
          "name": "dogTokenUris",
          "type": "string[3]"
        },
        {
          "internalType": "uint256",
          "name": "mintFee",
          "type": "uint256"
        }
      ],
      "stateMutability": "nonpayable",
      "type": "constructor"
    },
    {
      "inputs": [
        {
          "internalType": "address",
          "name": "have",
          "type": "address"
        },
        {
          "internalType": "address",
          "name": "want",
          "type": "address"
        }
      ],
      "name": "OnlyCoordinatorCanFulfill",
      "type": "error"
    },
    {
      "inputs": [],
      "name": "RandomIpfsNft__NeedMoreETHSent",
      "type": "error"
    },
    {
      "inputs": [],
      "name": "RandomIpfsNft__RangeOutOfBounds",
      "type": "error"
    },
    {
      "inputs": [],
      "name": "RandomIpfsNft__WithdrawTransferFailed",
      "type": "error"
    },
    {
      "anonymous": false,
      "inputs": [
        {
          "indexed": true,
          "internalType": "address",
          "name": "owner",
          "type": "address"
        },
        {
          "indexed": true,
          "internalType": "address",
          "name": "approved",
          "type": "address"
        },
        {
          "indexed": true,
          "internalType": "uint256",
          "name": "tokenId",
          "type": "uint256"
        }
      ],
      "name": "Approval",
      "type": "event"
    },
    {
      "anonymous": false,
      "inputs": [
        {
          "indexed": true,
          "internalType": "address",
          "name": "owner",
          "type": "address"
        },
        {
          "indexed": true,
          "internalType": "address",
          "name": "operator",
          "type": "address"
        },
        {
          "indexed": false,
          "internalType": "bool",
          "name": "approved",
          "type": "bool"
        }
      ],
      "name": "ApprovalForAll",
      "type": "event"
    },
    {
      "anonymous": false,
      "inputs": [
        {
          "indexed": false,
          "internalType": "enum RandomIpfsNft.Breed",
          "name": "dogBreed",
          "type": "uint8"
        },
        {
          "indexed": false,
          "internalType": "address",
          "name": "minter",
          "type": "address"
        }
      ],
      "name": "NFTMinted",
      "type": "event"
    },
    {
      "anonymous": false,
      "inputs": [
        {
          "indexed": false,
          "internalType": "uint256",
          "name": "requestId",
          "type": "uint256"
        },
        {
          "indexed": false,
          "internalType": "address",
          "name": "requestedBy",
          "type": "address"
        }
      ],
      "name": "NFTRequested",
      "type": "event"
    },
    {
      "anonymous": false,
      "inputs": [
        {
          "indexed": true,
          "internalType": "address",
          "name": "previousOwner",
          "type": "address"
        },
        {
          "indexed": true,
          "internalType": "address",
          "name": "newOwner",
          "type": "address"
        }
      ],
      "name": "OwnershipTransferred",
      "type": "event"
    },
    {
      "anonymous": false,
      "inputs": [
        {
          "indexed": true,
          "internalType": "address",
          "name": "from",
          "type": "address"
        },
        {
          "indexed": true,
          "internalType": "address",
          "name": "to",
          "type": "address"
        },
        {
          "indexed": true,
          "internalType": "uint256",
          "name": "tokenId",
          "type": "uint256"
        }
      ],
      "name": "Transfer",
      "type": "event"
    },
    {
      "inputs": [
        {
          "internalType": "address",
          "name": "to",
          "type": "address"
        },
        {
          "internalType": "uint256",
          "name": "tokenId",
          "type": "uint256"
        }
      ],
      "name": "approve",
      "outputs": [],
      "stateMutability": "nonpayable",
      "type": "function"
    },
    {
      "inputs": [
        {
          "internalType": "address",
          "name": "owner",
          "type": "address"
        }
      ],
      "name": "balanceOf",
      "outputs": [
        {
          "internalType": "uint256",
          "name": "",
          "type": "uint256"
        }
      ],
      "stateMutability": "view",
      "type": "function"
    },
    {
      "inputs": [
        {
          "internalType": "uint256",
          "name": "tokenId",
          "type": "uint256"
        }
      ],
      "name": "getApproved",
      "outputs": [
        {
          "internalType": "address",
          "name": "",
          "type": "address"
        }
      ],
      "stateMutability": "view",
      "type": "function"
    },
    {
      "inputs": [
        {
          "internalType": "uint256",
          "name": "moddedRng",
          "type": "uint256"
        }
      ],
      "name": "getBreedFromModdedRng",
      "outputs": [
        {
          "internalType": "enum RandomIpfsNft.Breed",
          "name": "",
          "type": "uint8"
        }
      ],
      "stateMutability": "pure",
      "type": "function"
    },
    {
      "inputs": [],
      "name": "getChanceArray",
      "outputs": [
        {
          "internalType": "uint256[3]",
          "name": "",
          "type": "uint256[3]"
        }
      ],
      "stateMutability": "pure",
      "type": "function"
    },
    {
      "inputs": [
        {
          "internalType": "uint256",
          "name": "index",
          "type": "uint256"
        }
      ],
      "name": "getDogTokenUris",
      "outputs": [
        {
          "internalType": "string",
          "name": "",
          "type": "string"
        }
      ],
      "stateMutability": "view",
      "type": "function"
    },
    {
      "inputs": [],
      "name": "getMintFee",
      "outputs": [
        {
          "internalType": "uint256",
          "name": "",
          "type": "uint256"
        }
      ],
      "stateMutability": "view",
      "type": "function"
    },
    {
      "inputs": [],
      "name": "getTokenCounter",
      "outputs": [
        {
          "internalType": "uint256",
          "name": "",
          "type": "uint256"
        }
      ],
      "stateMutability": "view",
      "type": "function"
    },
    {
      "inputs": [
        {
          "internalType": "address",
          "name": "owner",
          "type": "address"
        },
        {
          "internalType": "address",
          "name": "operator",
          "type": "address"
        }
      ],
      "name": "isApprovedForAll",
      "outputs": [
        {
          "internalType": "bool",
          "name": "",
          "type": "bool"
        }
      ],
      "stateMutability": "view",
      "type": "function"
    },
    {
      "inputs": [],
      "name": "name",
      "outputs": [
        {
          "internalType": "string",
          "name": "",
          "type": "string"
        }
      ],
      "stateMutability": "view",
      "type": "function"
    },
    {
      "inputs": [],
      "name": "owner",
      "outputs": [
        {
          "internalType": "address",
          "name": "",
          "type": "address"
        }
      ],
      "stateMutability": "view",
      "type": "function"
    },
    {
      "inputs": [
        {
          "internalType": "uint256",
          "name": "tokenId",
          "type": "uint256"
        }
      ],
      "name": "ownerOf",
      "outputs": [
        {
          "internalType": "address",
          "name": "",
          "type": "address"
        }
      ],
      "stateMutability": "view",
      "type": "function"
    },
    {
      "inputs": [
        {
          "internalType": "uint256",
          "name": "requestId",
          "type": "uint256"
        },
        {
          "internalType": "uint256[]",
          "name": "randomWords",
          "type": "uint256[]"
        }
      ],
      "name": "rawFulfillRandomWords",
      "outputs": [],
      "stateMutability": "nonpayable",
      "type": "function"
    },
    {
      "inputs": [],
      "name": "renounceOwnership",
      "outputs": [],
      "stateMutability": "nonpayable",
      "type": "function"
    },
    {
      "inputs": [],
      "name": "requestNft",
      "outputs": [
        {
          "internalType": "uint256",
          "name": "requestId",
          "type": "uint256"
        }
      ],
      "stateMutability": "payable",
      "type": "function"
    },
    {
      "inputs": [
        {
          "internalType": "uint256",
          "name": "",
          "type": "uint256"
        }
      ],
      "name": "s_requestIdToSender",
      "outputs": [
        {
          "internalType": "address",
          "name": "",
          "type": "address"
        }
      ],
      "stateMutability": "view",
      "type": "function"
    },
    {
      "inputs": [],
      "name": "s_tokenCounter",
      "outputs": [
        {
          "internalType": "uint256",
          "name": "",
          "type": "uint256"
        }
      ],
      "stateMutability": "view",
      "type": "function"
    },
    {
      "inputs": [
        {
          "internalType": "address",
          "name": "from",
          "type": "address"
        },
        {
          "internalType": "address",
          "name": "to",
          "type": "address"
        },
        {
          "internalType": "uint256",
          "name": "tokenId",
          "type": "uint256"
        }
      ],
      "name": "safeTransferFrom",
      "outputs": [],
      "stateMutability": "nonpayable",
      "type": "function"
    },
    {
      "inputs": [
        {
          "internalType": "address",
          "name": "from",
          "type": "address"
        },
        {
          "internalType": "address",
          "name": "to",
          "type": "address"
        },
        {
          "internalType": "uint256",
          "name": "tokenId",
          "type": "uint256"
        },
        {
          "internalType": "bytes",
          "name": "data",
          "type": "bytes"
        }
      ],
      "name": "safeTransferFrom",
      "outputs": [],
      "stateMutability": "nonpayable",
      "type": "function"
    },
    {
      "inputs": [
        {
          "internalType": "address",
          "name": "operator",
          "type": "address"
        },
        {
          "internalType": "bool",
          "name": "approved",
          "type": "bool"
        }
      ],
      "name": "setApprovalForAll",
      "outputs": [],
      "stateMutability": "nonpayable",
      "type": "function"
    },
    {
      "inputs": [
        {
          "internalType": "bytes4",
          "name": "interfaceId",
          "type": "bytes4"
        }
      ],
      "name": "supportsInterface",
      "outputs": [
        {
          "internalType": "bool",
          "name": "",
          "type": "bool"
        }
      ],
      "stateMutability": "view",
      "type": "function"
    },
    {
      "inputs": [],
      "name": "symbol",
      "outputs": [
        {
          "internalType": "string",
          "name": "",
          "type": "string"
        }
      ],
      "stateMutability": "view",
      "type": "function"
    },
    {
      "inputs": [
        {
          "internalType": "uint256",
          "name": "tokenId",
          "type": "uint256"
        }
      ],
      "name": "tokenURI",
      "outputs": [
        {
          "internalType": "string",
          "name": "",
          "type": "string"
        }
      ],
      "stateMutability": "view",
      "type": "function"
    },
    {
      "inputs": [
        {
          "internalType": "address",
          "name": "from",
          "type": "address"
        },
        {
          "internalType": "address",
          "name": "to",
          "type": "address"
        },
        {
          "internalType": "uint256",
          "name": "tokenId",
          "type": "uint256"
        }
      ],
      "name": "transferFrom",
      "outputs": [],
      "stateMutability": "nonpayable",
      "type": "function"
    },
    {
      "inputs": [
        {
          "internalType": "address",
          "name": "newOwner",
          "type": "address"
        }
      ],
      "name": "transferOwnership",
      "outputs": [],
      "stateMutability": "nonpayable",
      "type": "function"
    },
    {
      "inputs": [],
      "name": "withdraw",
      "outputs": [],
      "stateMutability": "nonpayable",
      "type": "function"
    }
  ],
  "transactionHash": "0x6a977acc2527f0701822b7e67a38c16824daaf8bf7bc4c346ba96c7651ccfc7b",
  "args": [
    "0x6168499c0cFfCaCD319c818142124B7A15E857ab",
    "8386",
    "0xd89b2bf150e3b9e13446986e571fb9cab24b13cea0a43ea20a6049a85cc807cc",
    "500000",
    [
      "ipfs://QmZQvoP3DHnvfCU7V77eKsXGS5XMM5BBfcVRBv4PLFEGNN",
      "ipfs://QmZS9wfJHd4YUwCkcQY9nKa69pJqF4PgZZC8aPw1vtftKe",
      "ipfs://QmX8ff9EZAqmQnSob3b4EWyNLXfazqJQJyY4SJkrc8HXXf"
    ],
    "10000000000000000"
  ],
  "numDeployments": 1,
  "solcInputHash": "1ced8fa21e8515ea83d3546cfbc6aef1",
  "bytecode": "0x6101406040523480156200001257600080fd5b506040516200432d3803806200432d8339818101604052810190620000389190620007ff565b6040518060400160405280600f81526020017f52616e646f6d2049504653204e465400000000000000000000000000000000008152506040518060400160405280600381526020017f52494e0000000000000000000000000000000000000000000000000000000000815250878073ffffffffffffffffffffffffffffffffffffffff1660808173ffffffffffffffffffffffffffffffffffffffff1681525050508160009080519060200190620000f292919062000292565b5080600190805190602001906200010b92919062000292565b5050506200012e62000122620001c460201b60201c565b620001cc60201b60201c565b8573ffffffffffffffffffffffffffffffffffffffff1660a08173ffffffffffffffffffffffffffffffffffffffff16815250508467ffffffffffffffff1660c08167ffffffffffffffff16815250508360e081815250508263ffffffff166101008163ffffffff168152505081600a906003620001ae92919062000323565b508061012081815250505050505050506200091f565b600033905090565b6000600760009054906101000a900473ffffffffffffffffffffffffffffffffffffffff16905081600760006101000a81548173ffffffffffffffffffffffffffffffffffffffff021916908373ffffffffffffffffffffffffffffffffffffffff1602179055508173ffffffffffffffffffffffffffffffffffffffff168173ffffffffffffffffffffffffffffffffffffffff167f8be0079c531659141344cd1fd0a4f28419497f9722a3daafe3b4186f6b6457e060405160405180910390a35050565b828054620002a090620008e9565b90600052602060002090601f016020900481019282620002c4576000855562000310565b82601f10620002df57805160ff191683800117855562000310565b8280016001018555821562000310579182015b828111156200030f578251825591602001919060010190620002f2565b5b5090506200031f91906200038a565b5090565b82805482825590600052602060002090810192821562000377579160200282015b82811115620003765782518290805190602001906200036592919062000292565b509160200191906001019062000344565b5b509050620003869190620003a9565b5090565b5b80821115620003a55760008160009055506001016200038b565b5090565b5b80821115620003cd5760008181620003c39190620003d1565b50600101620003aa565b5090565b508054620003df90620008e9565b6000825580601f10620003f3575062000414565b601f0160209004906000526020600020908101906200041391906200038a565b5b50565b6000604051905090565b600080fd5b600080fd5b600073ffffffffffffffffffffffffffffffffffffffff82169050919050565b600062000458826200042b565b9050919050565b6200046a816200044b565b81146200047657600080fd5b50565b6000815190506200048a816200045f565b92915050565b600067ffffffffffffffff82169050919050565b620004af8162000490565b8114620004bb57600080fd5b50565b600081519050620004cf81620004a4565b92915050565b6000819050919050565b620004ea81620004d5565b8114620004f657600080fd5b50565b6000815190506200050a81620004df565b92915050565b600063ffffffff82169050919050565b6200052b8162000510565b81146200053757600080fd5b50565b6000815190506200054b8162000520565b92915050565b600080fd5b6000601f19601f8301169050919050565b7f4e487b7100000000000000000000000000000000000000000000000000000000600052604160045260246000fd5b620005a18262000556565b810181811067ffffffffffffffff82111715620005c357620005c262000567565b5b80604052505050565b6000620005d862000417565b9050620005e6828262000596565b919050565b600067ffffffffffffffff82111562000609576200060862000567565b5b602082029050919050565b600080fd5b600080fd5b600067ffffffffffffffff8211156200063c576200063b62000567565b5b620006478262000556565b9050602081019050919050565b60005b838110156200067457808201518184015260208101905062000657565b8381111562000684576000848401525b50505050565b6000620006a16200069b846200061e565b620005cc565b905082815260208101848484011115620006c057620006bf62000619565b5b620006cd84828562000654565b509392505050565b600082601f830112620006ed57620006ec62000551565b5b8151620006ff8482602086016200068a565b91505092915050565b60006200071f6200071984620005eb565b620005cc565b905080602084028301858111156200073c576200073b62000614565b5b835b818110156200078a57805167ffffffffffffffff81111562000765576200076462000551565b5b808601620007748982620006d5565b855260208501945050506020810190506200073e565b5050509392505050565b600082601f830112620007ac57620007ab62000551565b5b6003620007bb84828562000708565b91505092915050565b6000819050919050565b620007d981620007c4565b8114620007e557600080fd5b50565b600081519050620007f981620007ce565b92915050565b60008060008060008060c087890312156200081f576200081e62000421565b5b60006200082f89828a0162000479565b96505060206200084289828a01620004be565b95505060406200085589828a01620004f9565b94505060606200086889828a016200053a565b935050608087015167ffffffffffffffff8111156200088c576200088b62000426565b5b6200089a89828a0162000794565b92505060a0620008ad89828a01620007e8565b9150509295509295509295565b7f4e487b7100000000000000000000000000000000000000000000000000000000600052602260045260246000fd5b600060028204905060018216806200090257607f821691505b60208210811415620009195762000918620008ba565b5b50919050565b60805160a05160c05160e05161010051610120516139b06200097d60003960008181610d760152610f850152600061105f0152600061101b0152600061103c01526000610fdf01526000818161091d015261097101526139b06000f3fe6080604052600436106101815760003560e01c806370a08231116100d1578063a36f573b1161008a578063b88d4fde11610064578063b88d4fde14610577578063c87b56dd146105a0578063e985e9c5146105dd578063f2fde38b1461061a57610181565b8063a36f573b146104df578063a51cccf31461051c578063aa1524911461055957610181565b806370a08231146103e1578063715018a61461041e5780637a5caab3146104355780638da5cb5b1461046057806395d89b411461048b578063a22cb465146104b657610181565b806323b872dd1161013e57806342842e0e1161011857806342842e0e146103255780635dacf5f41461034e5780636352211e146103795780636e02007d146103b657610181565b806323b872dd146102a85780633af25975146102d15780633ccfd60b1461030e57610181565b806301ffc9a71461018657806306fdde03146101c3578063081812fc146101ee578063095ea7b31461022b5780630b21a83b146102545780631fe543e31461027f575b600080fd5b34801561019257600080fd5b506101ad60048036038101906101a89190612535565b610643565b6040516101ba919061257d565b60405180910390f35b3480156101cf57600080fd5b506101d8610725565b6040516101e59190612631565b60405180910390f35b3480156101fa57600080fd5b5061021560048036038101906102109190612689565b6107b7565b60405161022291906126f7565b60405180910390f35b34801561023757600080fd5b50610252600480360381019061024d919061273e565b6107fd565b005b34801561026057600080fd5b50610269610915565b604051610276919061278d565b60405180910390f35b34801561028b57600080fd5b506102a660048036038101906102a191906128f0565b61091b565b005b3480156102b457600080fd5b506102cf60048036038101906102ca919061294c565b6109db565b005b3480156102dd57600080fd5b506102f860048036038101906102f39190612689565b610a3b565b6040516103059190612631565b60405180910390f35b34801561031a57600080fd5b50610323610aeb565b005b34801561033157600080fd5b5061034c6004803603810190610347919061294c565b610b9f565b005b34801561035a57600080fd5b50610363610bbf565b6040516103709190612a4a565b60405180910390f35b34801561038557600080fd5b506103a0600480360381019061039b9190612689565b610bea565b6040516103ad91906126f7565b60405180910390f35b3480156103c257600080fd5b506103cb610c9c565b6040516103d8919061278d565b60405180910390f35b3480156103ed57600080fd5b5061040860048036038101906104039190612a65565b610ca6565b604051610415919061278d565b60405180910390f35b34801561042a57600080fd5b50610433610d5e565b005b34801561044157600080fd5b5061044a610d72565b604051610457919061278d565b60405180910390f35b34801561046c57600080fd5b50610475610d9a565b60405161048291906126f7565b60405180910390f35b34801561049757600080fd5b506104a0610dc4565b6040516104ad9190612631565b60405180910390f35b3480156104c257600080fd5b506104dd60048036038101906104d89190612abe565b610e56565b005b3480156104eb57600080fd5b5061050660048036038101906105019190612689565b610e6c565b60405161051391906126f7565b60405180910390f35b34801561052857600080fd5b50610543600480360381019061053e9190612689565b610e9f565b6040516105509190612b75565b60405180910390f35b610561610f81565b60405161056e919061278d565b60405180910390f35b34801561058357600080fd5b5061059e60048036038101906105999190612c45565b611182565b005b3480156105ac57600080fd5b506105c760048036038101906105c29190612689565b6111e4565b6040516105d49190612631565b60405180910390f35b3480156105e957600080fd5b5061060460048036038101906105ff9190612cc8565b6112f7565b604051610611919061257d565b60405180910390f35b34801561062657600080fd5b50610641600480360381019061063c9190612a65565b61138b565b005b60007f80ac58cd000000000000000000000000000000000000000000000000000000007bffffffffffffffffffffffffffffffffffffffffffffffffffffffff1916827bffffffffffffffffffffffffffffffffffffffffffffffffffffffff1916148061070e57507f5b5e139f000000000000000000000000000000000000000000000000000000007bffffffffffffffffffffffffffffffffffffffffffffffffffffffff1916827bffffffffffffffffffffffffffffffffffffffffffffffffffffffff1916145b8061071e575061071d8261140f565b5b9050919050565b60606000805461073490612d37565b80601f016020809104026020016040519081016040528092919081815260200182805461076090612d37565b80156107ad5780601f10610782576101008083540402835291602001916107ad565b820191906000526020600020905b81548152906001019060200180831161079057829003601f168201915b5050505050905090565b60006107c282611479565b6004600083815260200190815260200160002060009054906101000a900473ffffffffffffffffffffffffffffffffffffffff169050919050565b600061080882610bea565b90508073ffffffffffffffffffffffffffffffffffffffff168373ffffffffffffffffffffffffffffffffffffffff161415610879576040517f08c379a000000000000000000000000000000000000000000000000000000000815260040161087090612ddb565b60405180910390fd5b8073ffffffffffffffffffffffffffffffffffffffff166108986114c4565b73ffffffffffffffffffffffffffffffffffffffff1614806108c757506108c6816108c16114c4565b6112f7565b5b610906576040517f08c379a00000000000000000000000000000000000000000000000000000000081526004016108fd90612e6d565b60405180910390fd5b61091083836114cc565b505050565b60095481565b7f000000000000000000000000000000000000000000000000000000000000000073ffffffffffffffffffffffffffffffffffffffff163373ffffffffffffffffffffffffffffffffffffffff16146109cd57337f00000000000000000000000000000000000000000000000000000000000000006040517f1cf993f40000000000000000000000000000000000000000000000000000000081526004016109c4929190612e8d565b60405180910390fd5b6109d78282611585565b5050565b6109ec6109e66114c4565b82611724565b610a2b576040517f08c379a0000000000000000000000000000000000000000000000000000000008152600401610a2290612f28565b60405180910390fd5b610a368383836117b9565b505050565b6060600a8281548110610a5157610a50612f48565b5b906000526020600020018054610a6690612d37565b80601f0160208091040260200160405190810160405280929190818152602001828054610a9290612d37565b8015610adf5780601f10610ab457610100808354040283529160200191610adf565b820191906000526020600020905b815481529060010190602001808311610ac257829003601f168201915b50505050509050919050565b610af3611a20565b600047905060003373ffffffffffffffffffffffffffffffffffffffff1682604051610b1e90612fa8565b60006040518083038185875af1925050503d8060008114610b5b576040519150601f19603f3d011682016040523d82523d6000602084013e610b60565b606091505b5050905080610b9b576040517fd01ff15d00000000000000000000000000000000000000000000000000000000815260040160405180910390fd5b5050565b610bba83838360405180602001604052806000815250611182565b505050565b610bc7612404565b6040518060600160405280600a8152602001601e81526020016064815250905090565b6000806002600084815260200190815260200160002060009054906101000a900473ffffffffffffffffffffffffffffffffffffffff169050600073ffffffffffffffffffffffffffffffffffffffff168173ffffffffffffffffffffffffffffffffffffffff161415610c93576040517f08c379a0000000000000000000000000000000000000000000000000000000008152600401610c8a90613009565b60405180910390fd5b80915050919050565b6000600954905090565b60008073ffffffffffffffffffffffffffffffffffffffff168273ffffffffffffffffffffffffffffffffffffffff161415610d17576040517f08c379a0000000000000000000000000000000000000000000000000000000008152600401610d0e9061309b565b60405180910390fd5b600360008373ffffffffffffffffffffffffffffffffffffffff1673ffffffffffffffffffffffffffffffffffffffff168152602001908152602001600020549050919050565b610d66611a20565b610d706000611a9e565b565b60007f0000000000000000000000000000000000000000000000000000000000000000905090565b6000600760009054906101000a900473ffffffffffffffffffffffffffffffffffffffff16905090565b606060018054610dd390612d37565b80601f0160208091040260200160405190810160405280929190818152602001828054610dff90612d37565b8015610e4c5780601f10610e2157610100808354040283529160200191610e4c565b820191906000526020600020905b815481529060010190602001808311610e2f57829003601f168201915b5050505050905090565b610e68610e616114c4565b8383611b64565b5050565b60086020528060005260406000206000915054906101000a900473ffffffffffffffffffffffffffffffffffffffff1681565b600080600090506000610eb0610bbf565b905060005b6003811015610f4957828510158015610eef5750818160038110610edc57610edb612f48565b5b602002015183610eec91906130ea565b85105b15610f1157806002811115610f0757610f06612afe565b5b9350505050610f7c565b818160038110610f2457610f23612f48565b5b602002015183610f3491906130ea565b92508080610f4190613140565b915050610eb5565b506040517f12806c9d00000000000000000000000000000000000000000000000000000000815260040160405180910390fd5b919050565b60007f0000000000000000000000000000000000000000000000000000000000000000341015610fdd576040517fb90f491000000000000000000000000000000000000000000000000000000000815260040160405180910390fd5b7f000000000000000000000000000000000000000000000000000000000000000073ffffffffffffffffffffffffffffffffffffffff16635d3b1d307f00000000000000000000000000000000000000000000000000000000000000007f000000000000000000000000000000000000000000000000000000000000000060037f000000000000000000000000000000000000000000000000000000000000000060016040518663ffffffff1660e01b81526004016110a0959493929190613201565b602060405180830381600087803b1580156110ba57600080fd5b505af11580156110ce573d6000803e3d6000fd5b505050506040513d601f19601f820116820180604052508101906110f29190613269565b9050336008600083815260200190815260200160002060006101000a81548173ffffffffffffffffffffffffffffffffffffffff021916908373ffffffffffffffffffffffffffffffffffffffff1602179055507f4e1c2f1eae56e29ec039a2b882eec626e6c420ed5a5b93a203c8b8b695e911b18133604051611177929190613296565b60405180910390a190565b61119361118d6114c4565b83611724565b6111d2576040517f08c379a00000000000000000000000000000000000000000000000000000000081526004016111c990612f28565b60405180910390fd5b6111de84848484611cd1565b50505050565b60606111ef82611479565b600060066000848152602001908152602001600020805461120f90612d37565b80601f016020809104026020016040519081016040528092919081815260200182805461123b90612d37565b80156112885780601f1061125d57610100808354040283529160200191611288565b820191906000526020600020905b81548152906001019060200180831161126b57829003601f168201915b505050505090506000611299611d2d565b90506000815114156112af5781925050506112f2565b6000825111156112e45780826040516020016112cc9291906132fb565b604051602081830303815290604052925050506112f2565b6112ed84611d44565b925050505b919050565b6000600560008473ffffffffffffffffffffffffffffffffffffffff1673ffffffffffffffffffffffffffffffffffffffff16815260200190815260200160002060008373ffffffffffffffffffffffffffffffffffffffff1673ffffffffffffffffffffffffffffffffffffffff16815260200190815260200160002060009054906101000a900460ff16905092915050565b611393611a20565b600073ffffffffffffffffffffffffffffffffffffffff168173ffffffffffffffffffffffffffffffffffffffff161415611403576040517f08c379a00000000000000000000000000000000000000000000000000000000081526004016113fa90613391565b60405180910390fd5b61140c81611a9e565b50565b60007f01ffc9a7000000000000000000000000000000000000000000000000000000007bffffffffffffffffffffffffffffffffffffffffffffffffffffffff1916827bffffffffffffffffffffffffffffffffffffffffffffffffffffffff1916149050919050565b61148281611dac565b6114c1576040517f08c379a00000000000000000000000000000000000000000000000000000000081526004016114b890613009565b60405180910390fd5b50565b600033905090565b816004600083815260200190815260200160002060006101000a81548173ffffffffffffffffffffffffffffffffffffffff021916908373ffffffffffffffffffffffffffffffffffffffff160217905550808273ffffffffffffffffffffffffffffffffffffffff1661153f83610bea565b73ffffffffffffffffffffffffffffffffffffffff167f8c5be1e5ebec7d5bd14f71427d1e84f3dd0314c0f7b2291e5b200ac8c7c3b92560405160405180910390a45050565b60006008600084815260200190815260200160002060009054906101000a900473ffffffffffffffffffffffffffffffffffffffff1690506000600954905060006064846000815181106115dc576115db612f48565b5b60200260200101516115ee91906133e0565b905060006115fb82610e9f565b905060016009600082825461161091906130ea565b925050819055506116218484611e18565b6116e383600a83600281111561163a57611639612afe565b5b8154811061164b5761164a612f48565b5b90600052602060002001805461166090612d37565b80601f016020809104026020016040519081016040528092919081815260200182805461168c90612d37565b80156116d95780601f106116ae576101008083540402835291602001916116d9565b820191906000526020600020905b8154815290600101906020018083116116bc57829003601f168201915b5050505050611e36565b7fab79897476febbd649710b1bd1dc3e93a316d3dee65f65b022ab89a4b7e206b58185604051611714929190613411565b60405180910390a1505050505050565b60008061173083610bea565b90508073ffffffffffffffffffffffffffffffffffffffff168473ffffffffffffffffffffffffffffffffffffffff161480611772575061177181856112f7565b5b806117b057508373ffffffffffffffffffffffffffffffffffffffff16611798846107b7565b73ffffffffffffffffffffffffffffffffffffffff16145b91505092915050565b8273ffffffffffffffffffffffffffffffffffffffff166117d982610bea565b73ffffffffffffffffffffffffffffffffffffffff161461182f576040517f08c379a0000000000000000000000000000000000000000000000000000000008152600401611826906134ac565b60405180910390fd5b600073ffffffffffffffffffffffffffffffffffffffff168273ffffffffffffffffffffffffffffffffffffffff16141561189f576040517f08c379a00000000000000000000000000000000000000000000000000000000081526004016118969061353e565b60405180910390fd5b6118aa838383611eaa565b6118b56000826114cc565b6001600360008573ffffffffffffffffffffffffffffffffffffffff1673ffffffffffffffffffffffffffffffffffffffff1681526020019081526020016000206000828254611905919061355e565b925050819055506001600360008473ffffffffffffffffffffffffffffffffffffffff1673ffffffffffffffffffffffffffffffffffffffff168152602001908152602001600020600082825461195c91906130ea565b92505081905550816002600083815260200190815260200160002060006101000a81548173ffffffffffffffffffffffffffffffffffffffff021916908373ffffffffffffffffffffffffffffffffffffffff160217905550808273ffffffffffffffffffffffffffffffffffffffff168473ffffffffffffffffffffffffffffffffffffffff167fddf252ad1be2c89b69c2b068fc378daa952ba7f163c4a11628f55a4df523b3ef60405160405180910390a4611a1b838383611eaf565b505050565b611a286114c4565b73ffffffffffffffffffffffffffffffffffffffff16611a46610d9a565b73ffffffffffffffffffffffffffffffffffffffff1614611a9c576040517f08c379a0000000000000000000000000000000000000000000000000000000008152600401611a93906135de565b60405180910390fd5b565b6000600760009054906101000a900473ffffffffffffffffffffffffffffffffffffffff16905081600760006101000a81548173ffffffffffffffffffffffffffffffffffffffff021916908373ffffffffffffffffffffffffffffffffffffffff1602179055508173ffffffffffffffffffffffffffffffffffffffff168173ffffffffffffffffffffffffffffffffffffffff167f8be0079c531659141344cd1fd0a4f28419497f9722a3daafe3b4186f6b6457e060405160405180910390a35050565b8173ffffffffffffffffffffffffffffffffffffffff168373ffffffffffffffffffffffffffffffffffffffff161415611bd3576040517f08c379a0000000000000000000000000000000000000000000000000000000008152600401611bca9061364a565b60405180910390fd5b80600560008573ffffffffffffffffffffffffffffffffffffffff1673ffffffffffffffffffffffffffffffffffffffff16815260200190815260200160002060008473ffffffffffffffffffffffffffffffffffffffff1673ffffffffffffffffffffffffffffffffffffffff16815260200190815260200160002060006101000a81548160ff0219169083151502179055508173ffffffffffffffffffffffffffffffffffffffff168373ffffffffffffffffffffffffffffffffffffffff167f17307eab39ab6107e8899845ad3d59bd9653f200f220920489ca2b5937696c3183604051611cc4919061257d565b60405180910390a3505050565b611cdc8484846117b9565b611ce884848484611eb4565b611d27576040517f08c379a0000000000000000000000000000000000000000000000000000000008152600401611d1e906136dc565b60405180910390fd5b50505050565b606060405180602001604052806000815250905090565b6060611d4f82611479565b6000611d59611d2d565b90506000815111611d795760405180602001604052806000815250611da4565b80611d838461204b565b604051602001611d949291906132fb565b6040516020818303038152906040525b915050919050565b60008073ffffffffffffffffffffffffffffffffffffffff166002600084815260200190815260200160002060009054906101000a900473ffffffffffffffffffffffffffffffffffffffff1673ffffffffffffffffffffffffffffffffffffffff1614159050919050565b611e328282604051806020016040528060008152506121ac565b5050565b611e3f82611dac565b611e7e576040517f08c379a0000000000000000000000000000000000000000000000000000000008152600401611e759061376e565b60405180910390fd5b80600660008481526020019081526020016000209080519060200190611ea5929190612426565b505050565b505050565b505050565b6000611ed58473ffffffffffffffffffffffffffffffffffffffff16612207565b1561203e578373ffffffffffffffffffffffffffffffffffffffff1663150b7a02611efe6114c4565b8786866040518563ffffffff1660e01b8152600401611f2094939291906137e3565b602060405180830381600087803b158015611f3a57600080fd5b505af1925050508015611f6b57506040513d601f19601f82011682018060405250810190611f689190613844565b60015b611fee573d8060008114611f9b576040519150601f19603f3d011682016040523d82523d6000602084013e611fa0565b606091505b50600081511415611fe6576040517f08c379a0000000000000000000000000000000000000000000000000000000008152600401611fdd906136dc565b60405180910390fd5b805181602001fd5b63150b7a0260e01b7bffffffffffffffffffffffffffffffffffffffffffffffffffffffff1916817bffffffffffffffffffffffffffffffffffffffffffffffffffffffff191614915050612043565b600190505b949350505050565b60606000821415612093576040518060400160405280600181526020017f300000000000000000000000000000000000000000000000000000000000000081525090506121a7565b600082905060005b600082146120c55780806120ae90613140565b915050600a826120be9190613871565b915061209b565b60008167ffffffffffffffff8111156120e1576120e06127ad565b5b6040519080825280601f01601f1916602001820160405280156121135781602001600182028036833780820191505090505b5090505b600085146121a05760018261212c919061355e565b9150600a8561213b91906133e0565b603061214791906130ea565b60f81b81838151811061215d5761215c612f48565b5b60200101907effffffffffffffffffffffffffffffffffffffffffffffffffffffffffffff1916908160001a905350600a856121999190613871565b9450612117565b8093505050505b919050565b6121b6838361222a565b6121c36000848484611eb4565b612202576040517f08c379a00000000000000000000000000000000000000000000000000000000081526004016121f9906136dc565b60405180910390fd5b505050565b6000808273ffffffffffffffffffffffffffffffffffffffff163b119050919050565b600073ffffffffffffffffffffffffffffffffffffffff168273ffffffffffffffffffffffffffffffffffffffff16141561229a576040517f08c379a0000000000000000000000000000000000000000000000000000000008152600401612291906138ee565b60405180910390fd5b6122a381611dac565b156122e3576040517f08c379a00000000000000000000000000000000000000000000000000000000081526004016122da9061395a565b60405180910390fd5b6122ef60008383611eaa565b6001600360008473ffffffffffffffffffffffffffffffffffffffff1673ffffffffffffffffffffffffffffffffffffffff168152602001908152602001600020600082825461233f91906130ea565b92505081905550816002600083815260200190815260200160002060006101000a81548173ffffffffffffffffffffffffffffffffffffffff021916908373ffffffffffffffffffffffffffffffffffffffff160217905550808273ffffffffffffffffffffffffffffffffffffffff16600073ffffffffffffffffffffffffffffffffffffffff167fddf252ad1be2c89b69c2b068fc378daa952ba7f163c4a11628f55a4df523b3ef60405160405180910390a461240060008383611eaf565b5050565b6040518060600160405280600390602082028036833780820191505090505090565b82805461243290612d37565b90600052602060002090601f016020900481019282612454576000855561249b565b82601f1061246d57805160ff191683800117855561249b565b8280016001018555821561249b579182015b8281111561249a57825182559160200191906001019061247f565b5b5090506124a891906124ac565b5090565b5b808211156124c55760008160009055506001016124ad565b5090565b6000604051905090565b600080fd5b600080fd5b60007fffffffff0000000000000000000000000000000000000000000000000000000082169050919050565b612512816124dd565b811461251d57600080fd5b50565b60008135905061252f81612509565b92915050565b60006020828403121561254b5761254a6124d3565b5b600061255984828501612520565b91505092915050565b60008115159050919050565b61257781612562565b82525050565b6000602082019050612592600083018461256e565b92915050565b600081519050919050565b600082825260208201905092915050565b60005b838110156125d25780820151818401526020810190506125b7565b838111156125e1576000848401525b50505050565b6000601f19601f8301169050919050565b600061260382612598565b61260d81856125a3565b935061261d8185602086016125b4565b612626816125e7565b840191505092915050565b6000602082019050818103600083015261264b81846125f8565b905092915050565b6000819050919050565b61266681612653565b811461267157600080fd5b50565b6000813590506126838161265d565b92915050565b60006020828403121561269f5761269e6124d3565b5b60006126ad84828501612674565b91505092915050565b600073ffffffffffffffffffffffffffffffffffffffff82169050919050565b60006126e1826126b6565b9050919050565b6126f1816126d6565b82525050565b600060208201905061270c60008301846126e8565b92915050565b61271b816126d6565b811461272657600080fd5b50565b60008135905061273881612712565b92915050565b60008060408385031215612755576127546124d3565b5b600061276385828601612729565b925050602061277485828601612674565b9150509250929050565b61278781612653565b82525050565b60006020820190506127a2600083018461277e565b92915050565b600080fd5b7f4e487b7100000000000000000000000000000000000000000000000000000000600052604160045260246000fd5b6127e5826125e7565b810181811067ffffffffffffffff82111715612804576128036127ad565b5b80604052505050565b60006128176124c9565b905061282382826127dc565b919050565b600067ffffffffffffffff821115612843576128426127ad565b5b602082029050602081019050919050565b600080fd5b600061286c61286784612828565b61280d565b9050808382526020820190506020840283018581111561288f5761288e612854565b5b835b818110156128b857806128a48882612674565b845260208401935050602081019050612891565b5050509392505050565b600082601f8301126128d7576128d66127a8565b5b81356128e7848260208601612859565b91505092915050565b60008060408385031215612907576129066124d3565b5b600061291585828601612674565b925050602083013567ffffffffffffffff811115612936576129356124d8565b5b612942858286016128c2565b9150509250929050565b600080600060608486031215612965576129646124d3565b5b600061297386828701612729565b935050602061298486828701612729565b925050604061299586828701612674565b9150509250925092565b600060039050919050565b600081905092915050565b6000819050919050565b6129c881612653565b82525050565b60006129da83836129bf565b60208301905092915050565b6000602082019050919050565b6129fc8161299f565b612a0681846129aa565b9250612a11826129b5565b8060005b83811015612a42578151612a2987826129ce565b9650612a34836129e6565b925050600181019050612a15565b505050505050565b6000606082019050612a5f60008301846129f3565b92915050565b600060208284031215612a7b57612a7a6124d3565b5b6000612a8984828501612729565b91505092915050565b612a9b81612562565b8114612aa657600080fd5b50565b600081359050612ab881612a92565b92915050565b60008060408385031215612ad557612ad46124d3565b5b6000612ae385828601612729565b9250506020612af485828601612aa9565b9150509250929050565b7f4e487b7100000000000000000000000000000000000000000000000000000000600052602160045260246000fd5b60038110612b3e57612b3d612afe565b5b50565b6000819050612b4f82612b2d565b919050565b6000612b5f82612b41565b9050919050565b612b6f81612b54565b82525050565b6000602082019050612b8a6000830184612b66565b92915050565b600080fd5b600067ffffffffffffffff821115612bb057612baf6127ad565b5b612bb9826125e7565b9050602081019050919050565b82818337600083830152505050565b6000612be8612be384612b95565b61280d565b905082815260208101848484011115612c0457612c03612b90565b5b612c0f848285612bc6565b509392505050565b600082601f830112612c2c57612c2b6127a8565b5b8135612c3c848260208601612bd5565b91505092915050565b60008060008060808587031215612c5f57612c5e6124d3565b5b6000612c6d87828801612729565b9450506020612c7e87828801612729565b9350506040612c8f87828801612674565b925050606085013567ffffffffffffffff811115612cb057612caf6124d8565b5b612cbc87828801612c17565b91505092959194509250565b60008060408385031215612cdf57612cde6124d3565b5b6000612ced85828601612729565b9250506020612cfe85828601612729565b9150509250929050565b7f4e487b7100000000000000000000000000000000000000000000000000000000600052602260045260246000fd5b60006002820490506001821680612d4f57607f821691505b60208210811415612d6357612d62612d08565b5b50919050565b7f4552433732313a20617070726f76616c20746f2063757272656e74206f776e6560008201527f7200000000000000000000000000000000000000000000000000000000000000602082015250565b6000612dc56021836125a3565b9150612dd082612d69565b604082019050919050565b60006020820190508181036000830152612df481612db8565b9050919050565b7f4552433732313a20617070726f76652063616c6c6572206973206e6f7420746f60008201527f6b656e206f776e6572206e6f7220617070726f76656420666f7220616c6c0000602082015250565b6000612e57603e836125a3565b9150612e6282612dfb565b604082019050919050565b60006020820190508181036000830152612e8681612e4a565b9050919050565b6000604082019050612ea260008301856126e8565b612eaf60208301846126e8565b9392505050565b7f4552433732313a2063616c6c6572206973206e6f7420746f6b656e206f776e6560008201527f72206e6f7220617070726f766564000000000000000000000000000000000000602082015250565b6000612f12602e836125a3565b9150612f1d82612eb6565b604082019050919050565b60006020820190508181036000830152612f4181612f05565b9050919050565b7f4e487b7100000000000000000000000000000000000000000000000000000000600052603260045260246000fd5b600081905092915050565b50565b6000612f92600083612f77565b9150612f9d82612f82565b600082019050919050565b6000612fb382612f85565b9150819050919050565b7f4552433732313a20696e76616c696420746f6b656e2049440000000000000000600082015250565b6000612ff36018836125a3565b9150612ffe82612fbd565b602082019050919050565b6000602082019050818103600083015261302281612fe6565b9050919050565b7f4552433732313a2061646472657373207a65726f206973206e6f74206120766160008201527f6c6964206f776e65720000000000000000000000000000000000000000000000602082015250565b60006130856029836125a3565b915061309082613029565b604082019050919050565b600060208201905081810360008301526130b481613078565b9050919050565b7f4e487b7100000000000000000000000000000000000000000000000000000000600052601160045260246000fd5b60006130f582612653565b915061310083612653565b9250827fffffffffffffffffffffffffffffffffffffffffffffffffffffffffffffffff03821115613135576131346130bb565b5b828201905092915050565b600061314b82612653565b91507fffffffffffffffffffffffffffffffffffffffffffffffffffffffffffffffff82141561317e5761317d6130bb565b5b600182019050919050565b6000819050919050565b61319c81613189565b82525050565b600067ffffffffffffffff82169050919050565b6131bf816131a2565b82525050565b600061ffff82169050919050565b6131dc816131c5565b82525050565b600063ffffffff82169050919050565b6131fb816131e2565b82525050565b600060a0820190506132166000830188613193565b61322360208301876131b6565b61323060408301866131d3565b61323d60608301856131f2565b61324a60808301846131f2565b9695505050505050565b6000815190506132638161265d565b92915050565b60006020828403121561327f5761327e6124d3565b5b600061328d84828501613254565b91505092915050565b60006040820190506132ab600083018561277e565b6132b860208301846126e8565b9392505050565b600081905092915050565b60006132d582612598565b6132df81856132bf565b93506132ef8185602086016125b4565b80840191505092915050565b600061330782856132ca565b915061331382846132ca565b91508190509392505050565b7f4f776e61626c653a206e6577206f776e657220697320746865207a65726f206160008201527f6464726573730000000000000000000000000000000000000000000000000000602082015250565b600061337b6026836125a3565b91506133868261331f565b604082019050919050565b600060208201905081810360008301526133aa8161336e565b9050919050565b7f4e487b7100000000000000000000000000000000000000000000000000000000600052601260045260246000fd5b60006133eb82612653565b91506133f683612653565b925082613406576134056133b1565b5b828206905092915050565b60006040820190506134266000830185612b66565b61343360208301846126e8565b9392505050565b7f4552433732313a207472616e736665722066726f6d20696e636f72726563742060008201527f6f776e6572000000000000000000000000000000000000000000000000000000602082015250565b60006134966025836125a3565b91506134a18261343a565b604082019050919050565b600060208201905081810360008301526134c581613489565b9050919050565b7f4552433732313a207472616e7366657220746f20746865207a65726f2061646460008201527f7265737300000000000000000000000000000000000000000000000000000000602082015250565b60006135286024836125a3565b9150613533826134cc565b604082019050919050565b600060208201905081810360008301526135578161351b565b9050919050565b600061356982612653565b915061357483612653565b925082821015613587576135866130bb565b5b828203905092915050565b7f4f776e61626c653a2063616c6c6572206973206e6f7420746865206f776e6572600082015250565b60006135c86020836125a3565b91506135d382613592565b602082019050919050565b600060208201905081810360008301526135f7816135bb565b9050919050565b7f4552433732313a20617070726f766520746f2063616c6c657200000000000000600082015250565b60006136346019836125a3565b915061363f826135fe565b602082019050919050565b6000602082019050818103600083015261366381613627565b9050919050565b7f4552433732313a207472616e7366657220746f206e6f6e20455243373231526560008201527f63656976657220696d706c656d656e7465720000000000000000000000000000602082015250565b60006136c66032836125a3565b91506136d18261366a565b604082019050919050565b600060208201905081810360008301526136f5816136b9565b9050919050565b7f45524337323155524953746f726167653a2055524920736574206f66206e6f6e60008201527f6578697374656e7420746f6b656e000000000000000000000000000000000000602082015250565b6000613758602e836125a3565b9150613763826136fc565b604082019050919050565b600060208201905081810360008301526137878161374b565b9050919050565b600081519050919050565b600082825260208201905092915050565b60006137b58261378e565b6137bf8185613799565b93506137cf8185602086016125b4565b6137d8816125e7565b840191505092915050565b60006080820190506137f860008301876126e8565b61380560208301866126e8565b613812604083018561277e565b818103606083015261382481846137aa565b905095945050505050565b60008151905061383e81612509565b92915050565b60006020828403121561385a576138596124d3565b5b60006138688482850161382f565b91505092915050565b600061387c82612653565b915061388783612653565b925082613897576138966133b1565b5b828204905092915050565b7f4552433732313a206d696e7420746f20746865207a65726f2061646472657373600082015250565b60006138d86020836125a3565b91506138e3826138a2565b602082019050919050565b60006020820190508181036000830152613907816138cb565b9050919050565b7f4552433732313a20746f6b656e20616c7265616479206d696e74656400000000600082015250565b6000613944601c836125a3565b915061394f8261390e565b602082019050919050565b6000602082019050818103600083015261397381613937565b905091905056fea2646970667358221220891bd1cc4cc4058e6094d36a70bf07fe4decdb18629d3bac41b1cc4977e03ae764736f6c63430008090033",
  "devdoc": {
    "kind": "dev",
    "methods": {
      "approve(address,uint256)": {
        "details": "See {IERC721-approve}."
      },
      "balanceOf(address)": {
        "details": "See {IERC721-balanceOf}."
      },
      "getApproved(uint256)": {
        "details": "See {IERC721-getApproved}."
      },
      "isApprovedForAll(address,address)": {
        "details": "See {IERC721-isApprovedForAll}."
      },
      "name()": {
        "details": "See {IERC721Metadata-name}."
      },
      "owner()": {
        "details": "Returns the address of the current owner."
      },
      "ownerOf(uint256)": {
        "details": "See {IERC721-ownerOf}."
      },
      "renounceOwnership()": {
        "details": "Leaves the contract without owner. It will not be possible to call `onlyOwner` functions anymore. Can only be called by the current owner. NOTE: Renouncing ownership will leave the contract without an owner, thereby removing any functionality that is only available to the owner."
      },
      "safeTransferFrom(address,address,uint256)": {
        "details": "See {IERC721-safeTransferFrom}."
      },
      "safeTransferFrom(address,address,uint256,bytes)": {
        "details": "See {IERC721-safeTransferFrom}."
      },
      "setApprovalForAll(address,bool)": {
        "details": "See {IERC721-setApprovalForAll}."
      },
      "supportsInterface(bytes4)": {
        "details": "See {IERC165-supportsInterface}."
      },
      "symbol()": {
        "details": "See {IERC721Metadata-symbol}."
      },
      "tokenURI(uint256)": {
        "details": "See {IERC721Metadata-tokenURI}."
      },
      "transferFrom(address,address,uint256)": {
        "details": "See {IERC721-transferFrom}."
      },
      "transferOwnership(address)": {
        "details": "Transfers ownership of the contract to a new account (`newOwner`). Can only be called by the current owner."
      }
    },
    "version": 1
  },
  "userdoc": {
    "kind": "user",
    "methods": {},
    "version": 1
  },
  "storageLayout": {
    "storage": [
      {
        "astId": 959,
        "contract": "contracts/RandomIpfsNft.sol:RandomIpfsNft",
        "label": "_name",
        "offset": 0,
        "slot": "0",
        "type": "t_string_storage"
      },
      {
        "astId": 961,
        "contract": "contracts/RandomIpfsNft.sol:RandomIpfsNft",
        "label": "_symbol",
        "offset": 0,
        "slot": "1",
        "type": "t_string_storage"
      },
      {
        "astId": 965,
        "contract": "contracts/RandomIpfsNft.sol:RandomIpfsNft",
        "label": "_owners",
        "offset": 0,
        "slot": "2",
        "type": "t_mapping(t_uint256,t_address)"
      },
      {
        "astId": 969,
        "contract": "contracts/RandomIpfsNft.sol:RandomIpfsNft",
        "label": "_balances",
        "offset": 0,
        "slot": "3",
        "type": "t_mapping(t_address,t_uint256)"
      },
      {
        "astId": 973,
        "contract": "contracts/RandomIpfsNft.sol:RandomIpfsNft",
        "label": "_tokenApprovals",
        "offset": 0,
        "slot": "4",
        "type": "t_mapping(t_uint256,t_address)"
      },
      {
        "astId": 979,
        "contract": "contracts/RandomIpfsNft.sol:RandomIpfsNft",
        "label": "_operatorApprovals",
        "offset": 0,
        "slot": "5",
        "type": "t_mapping(t_address,t_mapping(t_address,t_bool))"
      },
      {
        "astId": 1947,
        "contract": "contracts/RandomIpfsNft.sol:RandomIpfsNft",
        "label": "_tokenURIs",
        "offset": 0,
        "slot": "6",
        "type": "t_mapping(t_uint256,t_string_storage)"
      },
      {
        "astId": 828,
        "contract": "contracts/RandomIpfsNft.sol:RandomIpfsNft",
        "label": "_owner",
        "offset": 0,
        "slot": "7",
        "type": "t_address"
      },
      {
        "astId": 2706,
        "contract": "contracts/RandomIpfsNft.sol:RandomIpfsNft",
        "label": "s_requestIdToSender",
        "offset": 0,
        "slot": "8",
        "type": "t_mapping(t_uint256,t_address)"
      },
      {
        "astId": 2708,
        "contract": "contracts/RandomIpfsNft.sol:RandomIpfsNft",
        "label": "s_tokenCounter",
        "offset": 0,
        "slot": "9",
        "type": "t_uint256"
      },
      {
        "astId": 2714,
        "contract": "contracts/RandomIpfsNft.sol:RandomIpfsNft",
        "label": "s_dogTokenUris",
        "offset": 0,
        "slot": "10",
        "type": "t_array(t_string_storage)dyn_storage"
      }
    ],
    "types": {
      "t_address": {
        "encoding": "inplace",
        "label": "address",
        "numberOfBytes": "20"
      },
      "t_array(t_string_storage)dyn_storage": {
        "base": "t_string_storage",
        "encoding": "dynamic_array",
        "label": "string[]",
        "numberOfBytes": "32"
      },
      "t_bool": {
        "encoding": "inplace",
        "label": "bool",
        "numberOfBytes": "1"
      },
      "t_mapping(t_address,t_bool)": {
        "encoding": "mapping",
        "key": "t_address",
        "label": "mapping(address => bool)",
        "numberOfBytes": "32",
        "value": "t_bool"
      },
      "t_mapping(t_address,t_mapping(t_address,t_bool))": {
        "encoding": "mapping",
        "key": "t_address",
        "label": "mapping(address => mapping(address => bool))",
        "numberOfBytes": "32",
        "value": "t_mapping(t_address,t_bool)"
      },
      "t_mapping(t_address,t_uint256)": {
        "encoding": "mapping",
        "key": "t_address",
        "label": "mapping(address => uint256)",
        "numberOfBytes": "32",
        "value": "t_uint256"
      },
      "t_mapping(t_uint256,t_address)": {
        "encoding": "mapping",
        "key": "t_uint256",
        "label": "mapping(uint256 => address)",
        "numberOfBytes": "32",
        "value": "t_address"
      },
      "t_mapping(t_uint256,t_string_storage)": {
        "encoding": "mapping",
        "key": "t_uint256",
        "label": "mapping(uint256 => string)",
        "numberOfBytes": "32",
        "value": "t_string_storage"
      },
      "t_string_storage": {
        "encoding": "bytes",
        "label": "string",
        "numberOfBytes": "32"
      },
      "t_uint256": {
        "encoding": "inplace",
        "label": "uint256",
        "numberOfBytes": "32"
      }
    }
  }
}